:020000020000FC
:1000000048C3189518951895189517C318951895FD
:100010001895189573C218951895189518951895F0
:100020001895189518953E4141413E44427F404005
:1000300042615149462141454B311814127F102726
:10004000454545393C4A494930017109050336495E
:10005000494936064949291E0000000000080808E1
:1000600008087F090901017F102844007F0808085B
:100070007F4464544C4414141414141C2040201C59
:10008000C0C00000007E49457E01AED590A83FD398
:1000900000408D14A1C8DA1281B0D922DB30A4A6A9
:1000A000AF200021007F2200071260640717720052
:0100B000004F
:1000B20032D3C8D1C39A00E10A95F1F700C0B29BCE
:1000C20004C00AE0E2E6038703C003E1E2E6038735
:1000D200C39800E0E7E700830BE008B9C49A0FE990
:1000E20016E821E0015010402040E1F700C0000076
:1000F200459B03C000E0E7E7008300E008B9C4982D
:10010200E5E80081118122813381012B022B032B2F
:1001120081F00FE716E928E930E0E5E840815181F6
:1001220062817381D5D2E1E8008311832283338314
:1001320009C000E010E020E030E0E1E80083118334
:1001420022833383E1E800811181228133810034EB
:1001520042E414074FE0240740E0340748F00FE37D
:1001620012E42FE030E0E1E800831183228333833D
:1001720000E0E2E70083E1E800811181228133811E
:10018200003A46E8140741E0240740E0340790F0C3
:10019200E1E80081118122813381005A1648214011
:1001A20030400083118322833383E2E70081039589
:1001B2000083E1CFE2E70081E2E6028300E0E2E7CA
:1001C2000083E1E80081118122813381003147E21D
:1001D200140740E0240740E0340790F0E1E8008192
:1001E2001181228133810051174220403040008327
:1001F200118322833383E2E7008103950083E1CFF9
:10020200E2E70081E2E6038300E0E2E70083E1E85F
:100212000081118122813381083E43E0140740E0CE
:10022200240740E0340790F0E1E800811181228147
:100232003381085E134020403040008311832283C3
:100242003383E2E7008103950083E1CFE2E7008197
:10025200E2E6048300E0E2E70083E1E80081118145
:1002620022813381043640E0140740E0240740E055
:10027200340790F0E1E80081118122813381045634
:100282001040204030400083118322833383E2E711
:10029200008103950083E1CF02E1E2E60583E2E714
:1002A2000081E2E60683E7E70081002301F1E7E748
:1002B2000081043618F003E6E7E7008300E0E2E796
:1002C2000083E7E700810A3048F0E7E700810A503F
:1002D2000083E2E7008103950083F3CFE2E7008128
:1002E200E0E60183E7E70081E0E6008315C00BE06A
:1002F200E0E601830BE0E0E600830BE0E2E6028346
:100302000BE0E2E603830BE0E2E604830BE0E2E6C5
:1003120005830BE0E2E6068300E0E6E70083E6E71A
:100322000081073008F054C001E010E0E6E74081A8
:10033200C9D1E4E7008301E0E5E70083E5E7008156
:100342000F3F09F440C000E0E2E70083E2E70081EA
:100352000034A0F5E2E70081069506950695E3E7ED
:100362000083E3E70081023008F1E3E70081073010
:10037200E8F484E290E0E3E7008110E0800F911F4F
:10038200E5E70081E02FE05A408150E005E010E00F
:1003920089D1800F911FFC010491E4E710811023A1
:1003A200112321F011E00FEF53D103C011E000E05F
:1003B2004FD1E2E7008103950083C8CFE5E70081D2
:1003C2000A950083BBCFE6E7008103950083A7CFA0
:1003D20000E0E2E70083E2E70081003808F06ACE3D
:1003E200E2E700810770E3E70083E3E70081023080
:1003F20008F1E3E700810730E8F411E0A12F84E27D
:1004020090E0E3E7008110E0800F911FE2E70081B6
:10041200069506950695E02FEE59408150E005E0DD
:1004220010E040D1800F911FFC010491000F1A2FA0
:100432000FD103C011E000E00BD1E2E70081039588
:100442000083C9CFAA9300E00ABB00E00BBB08E11E
:1004520007BB00E008BB0CE701BB0CE602BB00E0F7
:100462000FBD01E00EBD00E002BD00E809BF7894B7
:100472000BE008B903E001B901E20A95F1F70000C7
:100482000CE702BB01E20A95F1F7000000E0E2E7A7
:100492000083E2E70081073178F410E0EAE8F0E057
:1004A200A2E72C9130E0E20FF31F0491D1D0E2E7F2
:1004B200008103950083EDCF0FE31DE023E001509F
:1004C20010402040E1F700C0000000E0E2E70083B6
:1004D200E2E70081083078F410E0E1EAF0E0A2E718
:1004E2002C9130E0E20FF31F0491B2D0E2E70081D9
:1004F20003950083EDCFA9910895EA930A927A9326
:100502006A935A934A933A932A931A930A930FB689
:10051200E7E7008103950083E8E700810023A9F162
:10052200E9E70081118122813381EDE700831183A4
:10053200228333830CB51DB520E030E0E9E7008368
:10054200118322833383E9E7008111812281338180
:10055200E5E840815181628173817695679557956F
:100562004795041715072607370750F5EDE7008171
:10057200118122813381E9E700831183228333834E
:10058200E7E700810A9500831BC000E010E020E04D
:1005920030E0E9E7008311832283338300E010E037
:1005A20020E030E0EDE7008311832283338300E013
:1005B20010E020E030E0E5E80083118322833383FA
:1005C20001E0E8E7008300E010E01DBD0CBDEDE7AF
:1005D2000081118122813381012B022B032B01F136
:1005E200E9E70081118122813381012B022B032B48
:1005F200B9F0EDE70081118122813381E9E7408181
:10060200518162817381400F511F621F731F769562
:10061200679557954795E5E84083518362837383D5
:100622000FBE099119912991399149915991699175
:1006320079910990E9911895EA931A930A931FB751
:1006420000E0E8E700831FBF09911991E99118952D
:10065200302F512F552319F008E702BB02C000E7E3
:1006620002BB27E02F3F71F002B30F7102BB01E022
:1006720010E0422F27D00323002309F0959A969A7F
:100682002A95F0CF0CE702BB089500008895FECFB3
:1006920008EC0DBFC9EA43D0002309F04CD008DDB5
:1006A200F4DFF3CF002411240030010741F0169546
:1006B200079510F4040E151E440F551FF5CF002D9B
:1006C200112D08954A951AF0000F111FFBCF0895BE
:1006D200002411241001E0E2EA9592F0001F111F9C
:1006E200221F331F001C111C221C331C041615066A
:1006F2002606370688F3041A150A260A370AECCFAB
:10070200001F111F221F331FA001B1010095109578
:10071200209530950895AA939A938A93089501E0BB
:10072200089510E01D930A95E1F7089515911D9320
:100732000A95E1F7089589EA90E0FC010591A491F8
:10074200FC01329625913491122F132B19F0F901E5
:10075200EDDF01C0E6DF049610E0813B910768F30C
:1007620008950B0B0C1000000000000D0E0F120A72
:04077200110112005F
:0400000300000000F9
:00000001FF
